:100000000C943A010C945A010C945A010C945A0124
:100010000C945A010C945A010C945A010C945A01F4
:100020000C945A010C945A010C945A010C945A01E4
:100030000C945A010C945A010C945A010C945A01D4
:100040000C945A010C9454060C94E4100C945C111A
:100050000C945A010C94A40A0C94D60A0C945A01DC
:100060000C945A010C945A010C945A010C945A01A4
:100070000C945A010C945A010C945A010C945A0194
:100080000C94650B0C94970B0C945A010C945A0128
:100090000C945A01084AD73B3BCE016E84BCBFFD8D
:1000A000C12F3D6C74319ABD56833DDA3D00C77F48
:1000B00011BED9E4BB4C3E916BAAAABE00000080E1
:1000C0003F05A84CCDB2D44EB93836A9020C50B970
:1000D000918688083CA6AAAA2ABE000000803F0795
:1000E000634236B79BD8A71A39685618AEBAAB55D3
:1000F0008C1D3CB7CC5763BD6DEDFD753EF6177298
:1001000031BF000000803F08000000BE9224491269
:100110003EABAAAA2ABECDCCCC4C3E00000080BE8D
:10012000ABAAAAAA3E00000000BF000000803F006A
:1001300000000000084178D3BB4387D1133D190E5E
:100140003CC3BD4282AD2B3E68EC8276BED98FE1C6
:10015000A93E4C80EFFFBE01C4FF7F3F00000000BE
:10016000007E6E7F620C37260C37120C370E0C3770
:10017000060C37020C37000C3600407A10F35A0098
:10018000A0724E18090010A5D4E80000E8764817C0
:100190000000E40B54020000CA9A3B000000E1F5A5
:1001A00005000080969800000040420F000000A06B
:1001B0008601000000102700000000E80300000096
:1001C000006400000000000A0000000000010000C0
:1001D0000000002C76D888DC674F0823DFC1DFAE33
:1001E00059E1B1B796E5E3E453C63AE651997696FC
:1001F000E8E6C28426EB898C9B62ED407C6FFCEFC5
:10020000BC9C9F40F2BAA56FA5F490055A2AF75CF2
:10021000936B6CF9676DC11BFCE0E40D47FEF520A4
:10022000E6B500D0ED902E0300943577050080846C
:100230001E080000204E0A000000C80C3333333380
:100240000F986E12831141EF8D2114893BE65516EC
:10025000CFFEE6DB18D1844B381BF77C1D901DA424
:10026000BBE424203284725E228100C9F124ECA117
:10027000E53D270011241FBECFEFD0E1DEBFCDBF8B
:1002800011E0A0E0B1E0E8ECFBE300E00BBF02C04E
:1002900007900D92AA34B107D9F71BBE13E0AAE468
:1002A000B1E001C01D92A43CB107E1F70E94911595
:1002B0000C94361B0C94000087EE80937E00ECE7D4
:1002C000F0E0808180648083EAE7F0E080818760ED
:1002D0008083808180688083089590E690937C007D
:1002E000882319F480917C000BC0823021F4809126
:1002F0007C00826005C0863029F480917C00866095
:1003000080937C0080917A0086FFFCCF90917900E9
:1003100080917800392F20E090E0822B932B089574
:1003200012B811B815B814B818B883E087B91BB85B
:1003300088E08AB91EB882E08DB911BA10BA089562
:10034000CF93DF93CDB7DEB7C854D0400FB6F89443
:10035000DEBF0FBECDBF85E00E94A41082E00E94E8
:100360000E158AE891E0A0E0B0E024968CAF9DAF36
:10037000AEAFBFAF249728968CAF9DAFAEAFBFAFE7
:10038000289729968FAD2997807F846029968FAF13
:10039000299780E0BE01605C7F4F0E942C1482EAA6
:1003A00091E0A0E0B0E08FAB98AFA9AFBAAF8BAF50
:1003B0009CAFADAFBEAF8FAD807F84608FAF81E06B
:1003C000BE01695C7F4F0E942C1481EA91E0A0E09D
:1003D000B0E08EA79FA7A8ABB9AB8AAB9BABACAB89
:1003E000BDAB8EA9807F84608EAB82E0BE01625D72
:1003F0007F4F0E942C1483EA91E0A0E0B0E08DA32F
:100400009EA3AFA3B8A789A79AA7ABA7BCA78DA5A2
:10041000807F84608DA783E0BE016B5D7F4F0E946B
:100420002C1481E891E1AEEFBCE08C8F9D8FAE8FF4
:10043000BF8F88A399A3AAA3BBA38CA18C7F8C6038
:100440008CA384E0BE01645E7F4F0E942C1483E87D
:1004500093E1AEEFBCE08B8B9C8BAD8BBE8B8F8B17
:10046000988FA98FBA8F8B8D8C7F8C608B8F85E056
:10047000BE016D5E7F4F0E942C1484E894E1AEEFC4
:10048000BCE08A879B87AC87BD878E879F87A88BB8
:10049000B98B8A898C7F8C608A8B86E0BE01665F0F
:1004A0007F4F0E942C1485E895E1AEEFBCE0898374
:1004B0009A83AB83BC838D839E83AF83B887898502
:1004C0008C7F8C60898787E0BE016F5F7F4F0E94C1
:1004D0002C14C85BDF4F0FB6F894DEBF0FBECDBF44
:1004E000DF91CF9108952F923F924F925F926F923A
:1004F0007F928F929F92AF92BF92CF92DF92EF92B4
:10050000FF920F931F93CF93DF93CDB7DEB76C9716
:100510000FB6F894DEBF0FBECDBF7C015B015E87D6
:100520004D873A8F298F1C8F0B8FDC014D905D908A
:100530006D907C90139714968D919D910D90BC9128
:10054000A02D89839A83AB83BC83F7016085718575
:10055000828593852DE33AE047ED5EE30E94941691
:100560002AE037ED43EE5EE30E94931669877A87AF
:100570008B879C87D7011C968D919D910D90BC9186
:10058000A02D8D8B9E8BAF8BB88F69817A818B81EB
:100590009C81A30192010E9407176B017C01F50168
:1005A00060837183828393830E945E174B015C0199
:1005B000C701B6010E94C4196D837E838F8398871B
:1005C000C501B401A30192010E9415196B017C01C0
:1005D0006D817E818F81988529813A814B815C81F3
:1005E0000E9415199B01AC01C701B6010E94941627
:1005F0002CEE31E548E35EE30E949316362E272E5B
:1006000089839D8359854A853B852C85852F942F29
:10061000A32FB22FBC01CD01FA010F2F1E2F232FC4
:100620003B2FA90198010E9415196B017C01A101C2
:1006300039812D81852F942FA32FB22FBC01CD019D
:10064000F1010F2F1E2F232F3B2FA90198010E948C
:1006500015199B01AC01C701B6010E9494164B010C
:10066000482EF92E862F992DA42DBF2DBC01CD012A
:1006700029E336ED45EE5FE30E94941629E43DE957
:1006800044E65FE30E949316698BC72EE82ED92EAD
:10069000562F382F862F9C2DAE2DBD2DBC01CD01A0
:1006A000F52F0F2F1C2D232F3B2FA90198010E94FE
:1006B00015198B01B82EA92E882D992DA42DBF2D8B
:1006C000BC01CD0129E336ED45EE50E40E94151939
:1006D000A501252F342FA90198010E9493160E948D
:1006E000CE194B015C0159854A853B852C85852FA8
:1006F000942FA32FB22FBC01CD01F10159814D815F
:100700000F2F1E2F252F342FA90198010E940717A4
:100710002B013C01C501B401F9890F2F1C2D2E2D91
:100720003D2DA90198010E9407179B01AC01C3014F
:10073000B2010E949416B62EA72E882E492EA5012E
:10074000852F942FA82DB42DED85FE858083918370
:10075000A283B383BC01CD010E945E176D877E87A3
:100760008F87988BA501852F942FA82DB42DBC01C0
:10077000CD010E94C4196B017C016D857E858F853A
:100780009889F985EA855B854C850F2F1E2F252FCB
:10079000342FA90198010E941519698B7A8B8B8BD4
:1007A0009C8BC701B601F10159814D810F2F1E2F7E
:1007B000252F342FA90198010E9415199B01AC0126
:1007C00069897A898B899C890E949316698B7A8BB7
:1007D0008B8B9C8BC701B601F985EA855B854C85BF
:1007E0000F2F1E2F252F342FA90198010E941519B4
:1007F0006B017C016D857E858F859889F10159811A
:100800004D810F2F1E2F252F342FA90198010E94F3
:1008100015199B01AC01C701B6010E9494162FE186
:1008200035E84BEA5FE30E9493169B01AC016989AE
:100830007A898B899C890E9407176B017C01A98D9D
:10084000BA8D6D937D938D939C9313976D897E895B
:100850008F89988D9058F5010F2F1E2F282D342D3C
:10086000A90198010E949316A70196015F770E9443
:100870009416DC01CB01EB8DFC8D80839183A283E8
:10088000B3836C960FB6F894DEBF0FBECDBFDF9179
:10089000CF911F910F91FF90EF90DF90CF90BF907D
:1008A000AF909F908F907F906F905F904F903F9010
:1008B0002F9008952F923F924F925F926F927F9266
:1008C0008F929F92AF92BF92CF92DF92EF92FF9260
:1008D0000F931F93CF93DF93CDB7DEB768970FB613
:1008E000F894DEBF0FBECDBF9C8B8B8B7E8B6D8B48
:1008F000588F4F8B0F83188729873A87C982DA82EE
:10090000EB82FC82A5019401C701B6010E949416F6
:10091000362E272E8D839E83A101382F292F852FD8
:10092000942FA32FB22FBC01CD012DA53EA54FA51D
:1009300058A90E949416162F072FF82EC92EA80129
:10094000852F942FAF2DBC2DBC01CD010E945E17C9
:100950004B015C01A801852F942FAF2DBC2DBC014C
:10096000CD010E94C4196B877C878D879E876F811C
:10097000788589859A850E945E176F87788B898B29
:100980009A8BA1013D812E81852F942FA32FB22F09
:10099000BC01CD010E945E176B017C0169817A81E7
:1009A0008B819C810E945E172B013C01C501B40123
:1009B0002DE33AE047ED5EE30E9415194B015C011F
:1009C000C701B60125E83BEE41E75FE30E94151938
:1009D0009B01AC01C501B4010E9494166B017C011E
:1009E000C301B2012FE135E84BEA5FE30E9415191C
:1009F0009B01AC01C701B6010E9494162CEE31E5B3
:100A000048E35EE30E949416F62EC72EE82ED92EF8
:100A10006F85788989899A890F2D1C2D2E2D3D2D62
:100A2000A90198010E941519DC01CB01EB89FC8911
:100A300080839183A283B3836F81788589859A852A
:100A40000E94C4192E2D3D2DA90198010E9415194F
:100A5000DC01CB01ED89FE8980839183A283B3837E
:100A6000A1013D812E81852F942FA32FB22FBC0190
:100A7000CD010E94C4196B017C0169817A818B814F
:100A80009C810E94C4192B013C016B857C858D855E
:100A90009E852DE33AE047ED5EE30E9415194B0178
:100AA0005C01C701B60125E83BEE41E75FE30E9428
:100AB00015199B01AC01C501B4010E9494166B018C
:100AC0007C01C301B2012FE135E84BEA5FE30E94EC
:100AD00015199B01AC01C701B6010E949416DC01F7
:100AE000CB01EF89F88D80839183A283B3836896CD
:100AF0000FB6F894DEBF0FBECDBFDF91CF911F912F
:100B00000F91FF90EF90DF90CF90BF90AF909F90AC
:100B10008F907F906F905F904F903F902F900895AF
:100B20002F923F924F925F927F928F929F92AF92BD
:100B3000BF92CF92DF92EF92FF920F931F93CF93CA
:100B4000DF9300D0CDB7DEB75A834983702E1401EE
:100B50002501F901A080B180FC0100811181FB0118
:100B600080819181081B190B80E091E00E940C0CA0
:100B7000C80169E572E04AE050E00E94391B89E54E
:100B800092E00E940C0C0115110531F483E0E9811B
:100B9000FA81808380E074C0A00EB11EFCE9AF161C
:100BA000FFEFBF0624F49CE9A92E9FEFB92E85E63E
:100BB000A816B1041CF084E6A82EB12CB801882731
:100BC00077FD8095982F0E94FC179B01AC01C7010F
:100BD000B6010E9415190E94C917DC01CB018C01D6
:100BE000B501882777FD8095982F0E94FC176B012F
:100BF0007C0181E191E00E940C0CC50169E572E085
:100C00004AE050E00E94391B89E592E00E940C0CFA
:100C1000C201B101A70196010E9415190E94C917CE
:100C2000600F711F77FF09C0772011F082E001C0CB
:100C300081E0E981FA81808318C0C201B10120E01E
:100C400030E040EC5FE30E949416A70196010E94F9
:100C500015190E94C917772011F081E001C082E0C8
:100C6000E981FA818083600F711F77FF03C070955F
:100C700061957F4FCB016536710514F084E690E0F5
:100C80000F900F90DF91CF911F910F91FF90EF90F8
:100C9000DF90CF90BF90AF909F908F907F905F90AC
:100CA0004F903F902F9008951F920F920FB60F9282
:100CB00011242F933F935F936F937F938F939F9311
:100CC000AF93BF9380914C0190914D019C012F5F98
:100CD0003F4F30934D0120934C0121E0853F920717
:100CE00038F081E080934B0110924D0110924C013D
:100CF00080914C0190914D0162E370E00E94BB1D18
:100D0000009719F481E080934A0186E086BDBF9187
:100D1000AF919F918F917F916F915F913F912F91B3
:100D20000F900FBE0F901F901895AF92BF92CF9269
:100D3000DF92EF92FF920F931F93CF93DF93D62F03
:100D4000C72FF82EE92ED22EC32EB42EA52EAE011B
:100D50009701852F942FA32FB22FBC01CD01F6014F
:100D6000A5010F2F1E2F252F342FA90198010E94B6
:100D70000A19181614F0E6017501AE019701852FC6
:100D80009C2FA32FBE2DBC01CD01DF91CF911F91D0
:100D90000F91FF90EF90DF90CF90BF90AF900895AC
:100DA0002F923F924F925F926F927F928F929F927B
:100DB000AF92BF92CF92DF92EF92FF920F931F9369
:100DC000CF93DF93CDB7DEB7A4970FB6F894DEBF0D
:100DD0000FBECDBF9A8B898BDC018D919D910D90BB
:100DE000BC91A02D8F8B988FA98FBA8FA989BA89B2
:100DF00014968D919D910D90BC91A02D8B8F9C8F01
:100E0000AD8FBE8FE989FA89C084D184E284F384EE
:100E1000C701B601A70196010E949416A701960189
:100E20000E9415199B01AC016FE672E18CEA90E417
:100E30000E949316462E772E682E592E862F972DB8
:100E4000A62DB52D8B8B9C8BAD8BBE8BC701B601B0
:100E50002FE135E84BEA5FE30E9415199B01AC01D5
:100E60000E941519862EB72EA82E992EC701B601FD
:100E700020E030E040E850E40E947819362E272E1A
:100E80008BA39CA3842D972DA62DB52DBC01CD0140
:100E9000042D172D262D352DA90198010E94151915
:100EA0006F8F78A389A39AA33A2D882D9B2DAA2D05
:100EB000B92DBC01CD01082D1B2D232F3B2FA901DE
:100EC00098010E9494169B01AC0160E67CE880E5E5
:100ED0009FE30E9493164B015C01C701B60129E410
:100EE0003DE944EE5FE30E941519A70196010E94B7
:100EF00015199B01AC01C501B4010E949316F101C3
:100F00005BA14CA10F2F1E2F252F342FA901980173
:100F10000E94941620E030E040E850E40E94151949
:100F20009B01AC016F8D78A189A19AA10E949316B3
:100F30000E94CE194B015C01042D172D262D352D55
:100F4000A90198010E94931620E030E040E05FEB99
:100F50000E941519C62EF72EE82ED92E6B897C8992
:100F60008D899E899058A50194010E94931620E0D6
:100F700030E040E05FEB0E941519862EB72EA82EB8
:100F8000992E8C2D9F2DAE2DBD2DBC01CD01082D90
:100F90001B2D2A2D392DA90198010E940A19181616
:100FA0001CF0C82C7501D92C8C2D9F2DAE2DBD2D7C
:100FB000BC01CD010E94CE196B8B7C8B8D8B9E8BDF
:100FC00089899A89BE01635F7F4FAE01475F5F4F9A
:100FD0009E012B5F3F4F8E010F5F1F4F0E947302D8
:100FE000CD84DE84EF84F888C701B6010E945E17C5
:100FF0004B015C01C701B6010E94C4192B013C01E1
:10100000C501B4012F89388D498D5A8D0E9415195B
:101010004B015C01C301B2012B8D3C8D4D8D5E8D6A
:101020000E9415199B01AC01C501B4010E949416E0
:101030002CEE31E548E35EE30E9493169F772B89FF
:101040003C894D895E890E945A1787FF62C0C7019B
:10105000B60128E535EE4AE150E40E940A19181657
:101060000CF457C0C701B60128E53AE844E65FE34F
:101070000E945A1787FD4DC0C984DA84EB84FC8432
:10108000C701B6012FEE3DEA45E95FE30E940A1968
:1010900018160CF43EC0C701B60123ED32E047EB51
:1010A0005CE30E945A1787FD34C0CD80DE80EF805C
:1010B000F884C701B60126E635E443E05FEB0E9401
:1010C0000A19181634F1C701B6012AE935E641E2DA
:1010D00050EC0E945A1787FD1CC0C980DA80EB8053
:1010E000FC80C701B6012EE23AE64EE65FE30E94BD
:1010F0000A19181674F0C701B6012CEC38EF42E259
:1011000050EC0E945A17881F8827881F91E0892772
:1011100001C080E0A4960FB6F894DEBF0FBECDBF2D
:10112000DF91CF911F910F91FF90EF90DF90CF90C3
:10113000BF90AF909F908F907F906F905F904F90F7
:101140003F902F900895EF92FF920F931F93CF93AC
:10115000DF93182F092FF62EE72E862F972F0E9448
:10116000D0068823F9F0C12FD02F00E011E068816C
:1011700079818A819B8120E030E040E85FEB0E942A
:101180005A17882349F4EF2DFE2D80E10190099232
:101190008150E1F781E007C00150104060960115D1
:1011A000110529F780E0DF91CF911F910F91FF90FA
:1011B000EF9008952F923F924F925F926F927F929D
:1011C0008F929F92AF92BF92CF92DF92EF92FF9257
:1011D0000F931F93CF93DF93CDB7DEB768970FB60A
:1011E000F894DEBF0FBECDBF9C8B8B8B3B01FB0108
:1011F00001900020E9F73197E61BF70B9F0140E0D3
:1012000050E02D8B3E8B4F8B588F80E090E0A0E814
:10121000BFE38D879E87AF87B88B89879A87AB8717
:10122000BC878D839E83AF83B88789839A83AB8382
:10123000BC8380E0CC24DD24760140C18230C9F13A
:10124000833030F4882351F0813009F032C10EC070
:101250008330C1F1843009F02CC119C1F301EC0DC8
:10126000FD1D90819C3309F024C117C1F301EC0DE1
:10127000FD1D8081883769F0893720F4813609F0B7
:1012800017C112C0893709F40AC18A3709F010C1A1
:1012900006C0AE01435F5F4F5A8B498B05C1CE013B
:1012A00005969A8B898B00C1DE011196BA8BA98BAA
:1012B000FBC0F301EC0DFD1D80818A3309F0F8C0FD
:1012C00083E0F7C0F301EC0DFD1D6081862F805394
:1012D0008A3008F0EDC070E060537040882777FDD9
:1012E0008095982F0E94FC171EC0A989BA896D911C
:1012F0007D918D919C9120E030E040E251E40E948C
:1013000015194B015C01612F70E060537040882714
:1013100077FD8095982F0E94FC179B01AC01C501B9
:10132000B4010E949416DC01CB01E989FA8980831B
:101330009183A283B3830894C11CD11CE11CF11CCE
:10134000F301EC0DFD1D1081812F80538A3068F26E
:10135000160127011E3209F0A9C00894C11CD11C36
:10136000E11CF11CF301EC0DFD1D6081862F805303
:101370008A3008F09DC070E060537040882777FD88
:101380008095982F0E94FC1720E030E040E251E465
:101390000E946117162F072FB82EA92E82E0C82EA3
:1013A000D12CE12CF12CC20CD31CE41CF51C91E0D7
:1013B000292E312C45C070E060537040882777FD9E
:1013C0008095982F0E94FC17F62FE72F382F292F92
:1013D0000894C11CD11CE11CF11C0894211C311C77
:1013E00088249924BF01A901872F9E2FA52FB22FF2
:1013F000BC01CD0120E030E040E251E40E946117E1
:10140000F62FE72F382F292F0894811C911C821466
:10141000930444F3D801C5014B2F502F692F7A2D27
:10142000CB01BA014F2F5E2FA32FB22F8A019D014E
:10143000A90198010E949416162F072FB82EA92EE5
:10144000F301EC0DFD1D6081862F80538A3008F476
:10145000B2CF0894C108D108E108F108A989BA8976
:101460006D917D918D919C91F801A5010F2F1E2FFB
:10147000252F3A2DA90198010E949416DC01CB0179
:10148000E989FA8980839183A283B3830FC0F30132
:10149000EC0DFD1D80818C3259F481E00AC09E0163
:1014A000275F3F4F3A8B298B82E003C084E001C065
:1014B0008FEF0894C11CD11CE11CF11C2D893E89C1
:1014C0004F89588DC216D306E406F50608F4B6CE49
:1014D00089859A85AB85BC850D811E812F813885D4
:1014E000C980DA80EB80FC804D855E856F857889C8
:1014F000EB89FC8940835183628373838483958362
:10150000A683B7830087118722873387C486D58651
:10151000E686F786CF0168960FB6F894DEBF0FBE59
:10152000CDBFDF91CF911F910F91FF90EF90DF9092
:10153000CF90BF90AF909F908F907F906F905F9073
:101540004F903F902F9008951F920F920FB60F92D9
:101550000BB60F9211242F938F939F93EF93FF93CA
:101560009091C0008091C600E091D501EF5FEF73CC
:101570002091D401E21741F09871E093D501F0E099
:10158000E852FE4F808301C092E08091D301892B05
:101590008093D301FF91EF919F918F912F910F90A5
:1015A0000BBE0F900FBE0F901F9018951F920F92B9
:1015B0000FB60F920BB60F9211248F939F93EF9358
:1015C000FF939091D7018091D601981769F0E0912F
:1015D000D601EF5FEF73E093D601F0E0E85EFD4FD8
:1015E00080818093C60005C08091C1008F7D80936B
:1015F000C100FF91EF919F918F910F900BBE0F90C3
:101600000FBE0F901F9018951092D7011092D6011F
:101610001092D5011092D40197FF04C022E02093CC
:10162000C0009F779093C5008093C40088E98093A1
:10163000C10086E08093C20008959091D501809109
:10164000D401981781F0E091D401EF5FEF73E0933C
:10165000D401F0E0E852FE4F80819091D3011092C6
:10166000D30190E0089580E091E008959091D70132
:101670009F5F9F732091D6019217E1F3E92FF0E06D
:10168000E85EFD4F80839093D7018091C100806216
:101690008093C1000895CF93DF93EC0102C00E94B4
:1016A000360B89918823D9F7DF91CF910895CF9395
:1016B000DF93EC0102C00E94360BFE01219684915B
:1016C0008823C9F7DF91CF9108951F920F920FB62B
:1016D0000F920BB60F9211242F938F939F93EF933A
:1016E000FF939091C8008091CE00E0915001EF5F90
:1016F000EF7320914F01E21741F09871E093500190
:10170000F0E0ED5AFE4F808301C092E080914E01DF
:10171000892B80934E01FF91EF919F918F912F9193
:101720000F900BBE0F900FBE0F901F9018951F9239
:101730000F920FB60F920BB60F9211248F939F93B7
:10174000EF93FF939091520180915101981769F0A6
:10175000E0915101EF5FEF73E0935101F0E0ED563E
:10176000FE4F80818093CE0005C08091C9008F7D9F
:101770008093C900FF91EF919F918F910F900BBEC5
:101780000F900FBE0F901F9018951092520110925B
:1017900051011092500110924F0197FF04C022E0B6
:1017A0002093C8009F779093CD008093CC0088E968
:1017B0008093C90086E08093CA00089590915001FB
:1017C00080914F01981781F0E0914F01EF5FEF7327
:1017D000E0934F01F0E0ED5AFE4F808190914E0171
:1017E00010924E0190E0089580E091E0089590916C
:1017F00052019F5F9F73209151019217E1F3E92FEE
:10180000F0E0ED56FE4F8083909352018091C90025
:1018100080628093C9000895CF93DF93EC0102C0EA
:101820000E94F70B89918823D9F7DF91CF91089512
:10183000CF93DF93EC0102C00E94F70BFE012196CB
:1018400084918823C9F7DF91CF910895CF93DF93D7
:10185000CDB7DEB72E970FB6F894DEBF0FBECDBF63
:1018600019821A821B821C828D818C7F8D8382E07B
:101870008E8381E08F831886CE0101960E947113BA
:101880002E960FB6F894DEBF0FBECDBFDF91CF917D
:101890000895FC01378120E08681A901480F511D80
:1018A000CA0108958F929F92AF92BF92EF92FF92DA
:1018B0000F931F93CF93DF93BC0180E090E00E94D1
:1018C000FA1720E030E048EC52E40E94611729E268
:1018D0003CE142E853E40E94931624E43BE843E2EF
:1018E00052E40E946117D62FC72FF82EE92EAE01C1
:1018F0009701852F942FA32FB22FBC01CD01FE019C
:10190000A7010F2F1E2F252F342FA90198010E9408
:101910001519462F572F682F792FCB01BA0125E8CB
:101920003BEE45E451EC0E9415194B015C01AE0100
:101930009701852F942FA32FB22FBC01CD0123E750
:1019400038E645E852E40E9415199B01AC01C50137
:10195000B4010E94941626E53EE046EB51E40E9455
:1019600093160E94C91724E630E0629FC001639F6E
:10197000900D729F900D1124DF91CF911F910F91C7
:10198000FF90EF90BF90AF909F908F9008950F932E
:101990001F93FC01978180E02681820F911D0081B9
:1019A000118122813381013A41E0140740E024078C
:1019B00040E0340709F43FC0023A41E0140740E038
:1019C000240740E0340750F40A3841E0140740E0AF
:1019D000240740E0340709F040C011C0023A41E05A
:1019E000140740E0240740E03407A9F0033A41E03F
:1019F000140740E0240740E0340779F52BC08451F8
:101A00009E44BC0180E090E00E94FA172FEF3FEE69
:101A10004BE555E40BC0885B9044BC0180E090E04E
:101A20000E94FA1720E030E040E053E40E94941650
:101A30000E94C91712C06BED7EE6681B790B80E02F
:101A400090E00E94FA1721E034EC41E656E40E944F
:101A50009316EECF0E94520CBC01CB0164E670E0FD
:101A60000E94CF1DCB011F910F9108950F931F93DB
:101A7000CF93DF93CDB7DEB727970FB6F894DEBFCD
:101A80000FBECDBF8B010E940C0CC801BE016F5F61
:101A90007F4F4AE050E00E94391BCE0101960E9420
:101AA0000C0C85E391E00E940C0C27960FB6F8947D
:101AB000DEBF0FBECDBFDF91CF911F910F91089573
:101AC0000F931F93CF93DF93CDB7DEB727970FB652
:101AD000F894DEBF0FBECDBF8B010E940C0CC80175
:101AE000BE016F5F7F4F4AE050E00E94391BCE017C
:101AF00001960E940C0C85E391E00E940C0C279645
:101B00000FB6F894DEBF0FBECDBFDF91CF911F910E
:101B10000F910895EF92FF920F931F93CF93DF934E
:101B2000CDB7DEB72F970FB6F894DEBF0FBECDBF8F
:101B30007C01CB01BA0120E030E044E353E40E9491
:101B40001519462F572F682F792FCB01BA012BED8E
:101B50003FE049E450E40E94611745E050E022E094
:101B600030E08E010F5F1F4F0E94141BC7010E94BF
:101B70000C0CC8010E940C0C85E391E00E940C0C37
:101B80002F960FB6F894DEBF0FBECDBFDF91CF9179
:101B90001F910F91FF90EF900895CF92DF92EF92F7
:101BA000FF920F931F93CF93DF93CDB7DEB72F979D
:101BB0000FB6F894DEBF0FBECDBF6A017B010E9455
:101BC0000C0CC701B60145E050E022E030E08E0188
:101BD0000F5F1F4F0E94141BC8010E940C0C85E36D
:101BE00091E00E940C0C2F960FB6F894DEBF0FBE4A
:101BF000CDBFDF91CF911F910F91FF90EF90DF90BC
:101C0000CF9008950F931F93FC01008311832283CB
:101C1000338384818E7F8260848388E0858317820A
:101C200011861286138614861586668340871F9157
:101C30000F9108958F929F92AF92BF92CF92DF92B1
:101C4000EF92FF920F931F93CF93DF93CDB7DEB741
:101C50002F970FB6F894DEBF0FBECDBF23E02983C8
:101C6000AE014F5F5F4F26E632E001E00F2EFAE94A
:101C7000CF2EF9E9DF2EF9E9EF2EFFE3FF2EF02D4D
:101C80000F2EFDEC8F2EFCEC9F2EFCECAF2EFDE317
:101C9000BF2EF02D0E949005F82E87E391E00E9460
:101CA0000C0C8F2D90E069E572E04AE050E00E9454
:101CB000391B89E592E00E940C0C83E491E00E94BC
:101CC0000C0CCE01029662E341E006E014E32EEF35
:101CD0003CE00E94020ECE0102960E9471138FEF2B
:101CE00090E7A2E081509040A040E1F700C00000E2
:101CF000FF2031F4109267021092660281E001C069
:101D000080E02F960FB6F894DEBF0FBECDBFDF91F7
:101D1000CF911F910F91FF90EF90DF90CF90BF90E8
:101D2000AF909F908F9008958F929F92AF92BF92A5
:101D3000CF92DF92EF92FF920F931F93CF93DF9397
:101D4000CDB7DEB72F970FB6F894DEBF0FBECDBF6D
:101D500023E02983AE014F5F5F4F20E632E000E0D1
:101D60000F2EF6E6CF2EF6E6DF2EF6EAEF2EFFE395
:101D7000FF2EF02D0F2EFDEC8F2EFCEC9F2EFCEC99
:101D8000AF2EFDE3BF2EF02D0E949005F82E87E3C5
:101D900091E00E940C0C8F2D90E069E572E04AE022
:101DA00050E00E94391B89E592E00E940C0C83E40C
:101DB00091E00E940C0CCE01029662E342E006E044
:101DC00015E32EEF3CE00E94020ECE0102960E9427
:101DD00071138FEF90E7A2E081509040A040E1F7AF
:101DE00000C00000FF2031F41092610210926002E6
:101DF00081E001C080E02F960FB6F894DEBF0FBEE1
:101E0000CDBFDF91CF911F910F91FF90EF90DF90A9
:101E1000CF90BF90AF909F908F9008958F929F9298
:101E2000AF92BF92CF92DF92EF92FF920F931F93E8
:101E3000CF93DF93CDB7DEB72F970FB6F894DEBF01
:101E40000FBECDBF23E02983AE014F5F5F4F22E677
:101E500032E000E00F2EF6E6CF2EF6E6DF2EF6EAB1
:101E6000EF2EFFE3FF2EF02D0F2EF0E08F2EF0E08F
:101E70009F2EF0E0AF2EF0E0BF2EF02D0E949005D7
:101E8000F82E87E391E00E940C0C8F2D90E069E51D
:101E900072E04AE050E00E94391B89E592E00E941E
:101EA0000C0C83E491E00E940C0CCE01029662E3DC
:101EB00042E006E013E32EEF3CE00E94020ECE016A
:101EC00002960E9471138FEF90E7A2E0815090403C
:101ED000A040E1F700C00000FF2031F4109263023F
:101EE0001092620281E001C080E02F960FB6F89454
:101EF000DEBF0FBECDBFDF91CF911F910F91FF903D
:101F0000EF90DF90CF90BF90AF909F908F9008950B
:101F10008F929F92AF92BF92CF92DF92EF92FF92F9
:101F20000F931F93CF93DF93CDB7DEB72F970FB6E5
:101F3000F894DEBF0FBECDBF23E02983AE014F5F13
:101F40005F4F24E632E001E00F2EFDECCF2EFCECDB
:101F5000DF2EFCE4EF2EFFE3FF2EF02D0F2EFDEC25
:101F60008F2EFCEC9F2EFCECAF2EFDE3BF2EF02D50
:101F70000E949005F82E87E391E00E940C0C8F2DB3
:101F800090E069E572E04AE050E00E94391B89E583
:101F900092E00E940C0C83E491E00E940C0CCE01B4
:101FA000029662E341E006E011E32EEF3CE00E947E
:101FB000020ECE0102960E9471138FEF90E7A2E00D
:101FC00081509040A040E1F700C00000FF2031F4B4
:101FD000109265021092640281E001C080E02F96A9
:101FE0000FB6F894DEBF0FBECDBFDF91CF911F912A
:101FF0000F91FF90EF90DF90CF90BF90AF909F90A8
:102000008F900895FC019185878126812D578D57EA
:10201000821708F4822F0895EF92FF920F931F9377
:10202000CF93DF93CDB7DEB727970FB6F894DEBF17
:102030000FBECDBF7B018A010E940C0CF80180818C
:1020400090E0BE016F5F7F4F4AE050E00E94391B75
:10205000CE0101960E940C0C85E491E00E940C0CCC
:10206000C7010E940C0CF801818190E0BE016F5FF6
:102070007F4F4AE050E00E94391BCE0101960E943A
:102080000C0C83E491E00E940C0C27960FB6F89498
:10209000DEBF0FBECDBFDF91CF911F910F91FF909B
:1020A000EF90089580915802882371F4982F9295AB
:1020B000907F9093ED009091EF00907C31F08F5FD6
:1020C0008F30A1F78FEF08958FEF0895883070F467
:1020D0009091DE0021E030E002C0220F331F8A958C
:1020E000E2F7209529232093DE0008954091DF0038
:1020F00090E0089721E030E002C0220F331F8A955C
:10210000E2F7209524232093DF000895883068F4B7
:102110009091DE0021E030E002C0220F331F8A954B
:10212000E2F7922B9093DE0008954091DF0090E05B
:10213000089721E030E002C0220F331F8A95E2F7B2
:10214000422B4093DF000895883008F03BC0909107
:10215000D80091609093D80090E09C01220F331F2B
:10216000280F391FF901EF59FE4FE491E093E20087
:10217000F901EE59FE4FE491E093E3002D593E4FF3
:10218000F90124912093E4001092DA0080EB80930F
:10219000DB0087EC8093E5008FEF0E9474118EEBDB
:1021A00093E060E14EED52E00E941A1588ED92E056
:1021B00068E048E652E00E941A1582E08093D80059
:1021C00081E0089580E008951F920F920FB60F925C
:1021D0000BB60F9211242F933F934F935F936F93FE
:1021E0007F938F939F93AF93BF93CF93DF93EF939F
:1021F000FF938091EC00807F803F09F444C0C09140
:10220000ED008091EC00807F8093ED00D091EC0098
:102210008091EE0086FF1EC08091EE001092EE00CD
:102220001092EF0088ED92E00E946515009751F042
:102230000E94A41388ED92E00E9482158091EF0025
:1022400080641CC08D2F82958F700E946610109242
:10225000580216C08EEB93E00E943915009731F0BA
:102260000E94DC128EEB93E00E9456158091EE00E6
:102270001092EE008091EF00807180688093EF00F3
:10228000C093ED0004C08091DA008093DA00FF91E2
:10229000EF91DF91CF91BF91AF919F918F917F91FE
:1022A0006F915F914F913F912F910F900BBE0F90C7
:1022B0000FBE0F901F9018951F920F920FB60F929E
:1022C00011240F900FBE0F901F9018958EEB93E086
:1022D0000E94251591E08927089588ED92E00E94DB
:1022E0002E1591E0892708958F30C8F08F3F09F0AF
:1022F0004AC01092DF001092DE0080E0982F929585
:10230000907F9093ED009091EF001092EF009091EC
:10231000EE001092EE008F5F8F3081F732C090E8B0
:102320009093D8009091D90093FDFCCF1092D800E3
:102330009091D90092FDFCCF982F9295907F909329
:10234000ED009091EE001092EE001092EF000E94CE
:1023500066109091ED0080E0282F2295207F209339
:10236000ED002091EF002093EF008F5F8F30A1F7F9
:102370009093ED0082E08093D8008091D90082FF95
:10238000FCCF81E0089580E008959091EA0080916B
:10239000EB000895CF93DF93D82FC92F8EEB93E0F6
:1023A0000E946515DC01009769F0ED2FFC2F8EE08F
:1023B0000D9001928150E1F78EEB93E00E9482151F
:1023C0008FEF01C080E0DF91CF910895CF92DF922F
:1023D000EF92FF920F931F93CF93FB018F3008F082
:1023E000DEC08295807F8093ED008091EF00807C3D
:1023F00009F4D7C08091EF00807C803809F0D3C009
:102400008091F40082FF0AC09091F000808592FFD5
:1024100002C0836005C08C7F826002C080858C7F93
:1024200080878091F40080FF81C08091EF0084FF5D
:102430007DC080858C608087C090F400C694C6946F
:10244000C694DD24EE24FF248091F5000091F6006F
:102450004091F70010E020E030E0BDE0000F111FD8
:10246000221F331FBA95D1F70C291D292E293F2988
:1024700050E060E070E0C5E1440F551F661F771F14
:10248000CA95D1F7042B152B262B372B90E0A5E00E
:10249000880F991FAA95E1F7A0E0B0E0082B192B4F
:1024A0002A2B3B2B0483158326833783C090F000AF
:1024B000C694C694C694DD24EE24FF24C091F10096
:1024C0008091F2004091F30090E0A0E0B0E0072E90
:1024D0007DE0880F991FAA1FBB1F7A95D1F7702D39
:1024E0008C299D29AE29BF2950E060E070E0032EC1
:1024F00035E1440F551F661F771F3A95D1F7302DF0
:10250000842B952BA62BB72B4C2F50E0C5E0440F06
:10251000551FCA95E1F760E070E0842B952BA62B40
:10252000B72B80239123A223B32333C09091F400CF
:102530008085837F90FD886080872091F6002295BA
:102540002695277030E08091F70090E043E0880FF7
:10255000991F4A95E1F7822B932BAC0160E070E064
:1025600044835583668377834091F2004295469574
:10257000477050E02091F30030E0A3E0220F331FBA
:10258000AA95E1F7242B352B28233923C901A0E094
:10259000B0E080839183A283B38381E005C080E0B3
:1025A00003C082E001C08FEFCF911F910F91FF9088
:1025B000EF90DF90CF900895CF93DF9300D000D0BD
:1025C000CDB7DEB7FC018091EF00982F9F70958307
:1025D00084FF1EC08091F00089838091F1008A837E
:1025E0008091F2008B838091F3008C8389819A81A2
:1025F000AB81BC8153E0B695A795979587955A9581
:10260000D1F780839183A283B3838481826018C0D1
:102610002091F20022952695277030E08091F300FA
:1026200090E043E0880F991F4A95E1F7822B932BA6
:10263000A0E0B0E080839183A283B38384818D7F07
:1026400084839091F000848192FF03C08160848331
:102650000EC08E7F8483CF010696DC0103C02091DB
:10266000FA002D933A2F381B25813217C0F381E0F1
:102670000F900F900F900F90DF91CF9108951F93BF
:10268000CF93DF93EC010E946611882329F110E0BB
:10269000812F8295807F8093ED008091EE0085FFF1
:1026A00014C08091EE001092EE00CE010E94DC1268
:1026B000C82F812F0E9486108091EF008071806862
:1026C0008093EF00CC2329F407C01F5F1F3001F770
:1026D00003C0812F8F5F01C080E0DF91CF911F91F8
:1026E00008951F93CF93DF93D82FC92F809158025D
:1026F0008823F1F088ED92E00E943915DC01009703
:10270000E1F0ED2FFC2F8EE001900D928150E1F76A
:102710001FB7F89480915802882331F088ED92E039
:102720000E94561581E001C080E01FBF882339F464
:102730008D2F9C2F0E94021403C080E001C081E015
:10274000DF91CF911F910895CF93DF9300D000D0F8
:10275000CDB7DEB7FC0185818093EF00848181FFD6
:1027600022C08091EF0080618093EF008081880F0C
:10277000880F880F8093F00080819181A281B381BE
:1027800033E0880F991FAA1FBB1F3A95D1F78983A1
:102790009A83AB83BC838A818093F1008B81809381
:1027A000F2008C8111C01092F0001092F100808133
:1027B0008295880F807E8093F2008081918123E052
:1027C000969587952A95E1F78093F300848180FFA1
:1027D00006C08091F00084608093F0000CC0CF01AF
:1027E0000696DC0103C02D912093FA003A2F381B86
:1027F00025813217C0F30F900F900F900F90DF914B
:10280000CF9108951F93CF93DF93EC010E94521054
:10281000182F8F30E0F48295807F8093ED008091B7
:10282000EE001092EE00CE010E94A413812F0E94B0
:1028300086108FB7F89491E0909358028FBF8091E3
:10284000EF0080648093EF00812F8F5F01C080E0F4
:10285000DF91CF911F910895FB018F3008F0DCC00C
:1028600090E89093D8009091D90093FDFCCF1092FE
:10287000D8009091D90092FDFCCF982F9295907F2F
:102880009093ED001092EE001092EF0090859C70F6
:102890009C3009F061C09081990F990F990F909326
:1028A000F0004081518162817381A5E07695679542
:1028B00057954795AA95D1F74093F10040815181F2
:1028C00062817381BDE07695679557954795BA9576
:1028D000D1F74093F200408151816281738195E18B
:1028E00076956795579547959A95D1F74093F3005C
:1028F0009481990F990F990F91609093F4004481FE
:1029000055816681778125E076956795579547953E
:102910002A95D1F74093F5004481558166817781EE
:102920003DE076956795579547953A95D1F7409351
:10293000F6004481558166817781A5E1769567959A
:1029400057954795AA95D1F74093F7009091EF00DE
:1029500090619093EF002DC01092F0001092F10062
:1029600090819295990F907E9093F2002081318111
:1029700043E0369527954A95E1F72093F30090853B
:102980009C7021F091E09093F40002C01092F4004A
:102990001092F50094819295990F907E9093F60095
:1029A0002481358193E0369527959A95E1F7209318
:1029B000F7009085937091FF0EC09091F4009460A1
:1029C0009093F4009085937090FF05C09091F00073
:1029D00094609093F0009091EF0090689093EF00D6
:1029E0000E9486109091ED0080E0282F2295207F94
:1029F0002093ED002091EF002093EF008F5F8F3048
:102A0000A1F79093ED0082E08093D8008091D900E7
:102A100082FFFCCF81E0089580E00895823020F4A9
:102A20008091D800886003C08091D800877F809310
:102A3000D8000895FC018FB7F894628351834083D6
:102A40001482158213828FBF08952FB7F894FC016A
:102A500093812FBF81E0911180E00895FC018FB731
:102A6000F894238192818FBF81E0291708F480E0D8
:102A70000895CF93DF93EC010E942E15882389F4EB
:102A80008C8190E0880F991F9C0143E0220F331F37
:102A90004A95E1F7281B390B88819981820F931F92
:102AA00002C080E090E0DF91CF910895FC019FB7D4
:102AB000F89483818F5F838384818F5F84832281F5
:102AC000821708F014829FBF0895CF93DF93EC0123
:102AD0000E942515882389F48D8190E0880F991F25
:102AE0009C0163E0220F331F6A95E1F7281B390B25
:102AF00088819981820F931F02C080E090E0DF916E
:102B0000CF910895FC019FB7F8948381815083830E
:102B100085818F5F85832281821708F015829FBF90
:102B20000895CF93DF93CDB7DEB7C654D0400FB62C
:102B3000F894DEBF0FBECDBF789488E1809360002B
:102B4000109260000E94900183E090E00E94C50B0B
:102B50000E94A0010E945C010E94260C1FA618AAD8
:102B600019AA1AAA1BAA1CAA1DAA1EAA85E291E0EC
:102B70000E940C0C80E090E0DC018FAB98AFA9AF15
:102B8000BAAF86E696E6A6EABFE38BAF9CAFADAFE1
:102B9000BEAF83E393E3A3E3BFE323968CAF9DAF84
:102BA000AEAFBFAF23978BED9FE0A9ECBFE32796B5
:102BB0008CAF9DAFAEAFBFAF2797CE01C796BE011A
:102BC000695E7F4FAE014D5E5F4F9E01215F3F4FBB
:102BD0008E01055F1F4F0E947302E4E6EE2ECE01C8
:102BE0004B9660E040E006E011E32EEF3CE00E94EF
:102BF000020ECE014B960E947113CE014B9660E0FF
:102C000040E006E013E32EEF3CE00E94020ECE010E
:102C10004B960E947113CE014B9660E040E006E0B7
:102C200015E32EEF3CE00E94020ECE014B960E946F
:102C30007113CE014B9660E040E006E014E32EEF06
:102C40003CE00E94020ECE014B960E9471138FEF62
:102C500090E7A2E081509040A040E1F700C0000062
:102C6000EA9409F0BCCF0FE010E08CEEE82E8FEF75
:102C7000F82E98E2C92ED12C24ECA22E2FEFB22EE2
:102C80000E9466118823E1F3CE0189960E94CA1141
:102C90001A870987F886EF82DE82CD82BC82AB82FA
:102CA0001A821982CE010796BE01675F7F4F0E948C
:102CB000880F8FEF90E7A2E081509040A040E1F7AD
:102CC00000C00000CE010596BE01675F7F4F0E94E5
:102CD0000E0F8FEF90E7A2E081509040A040E1F707
:102CE00000C00000CE010396BE01675F7F4F0E94C7
:102CF000940E8FEF90E7A2E081509040A040E1F762
:102D000000C00000CE010196BE01675F7F4F0E94A8
:102D10001A0E8FEF90E7A2E081509040A040E1F7BB
:102D200000C00000ADCF5058BB27AA270ED027C245
:102D3000F0D130F0F5D120F031F49F3F11F41EF4C2
:102D4000C0C10EF4E095E7FBB6C1E92F3AD280F39B
:102D5000BA17620773078407950718F071F49EF598
:102D600052C20EF4E0950B2EBA2FA02D0B01B90123
:102D700090010C01CA01A0011124FF27591B99F0F1
:102D8000593F50F4503E68F11A16F040A22F232FFD
:102D9000342F4427585FF3CF469537952795A7954D
:102DA000F0405395C9F77EF41F16BA0B620B730BF4
:102DB000840BBAF09150A1F0FF0FBB1F661F771F65
:102DC000881FC2F70EC0BA0F621F731F841F48F41A
:102DD000879577956795B795F7959E3F08F0B3CFA0
:102DE0009395880F08F09927EE0F9795879508958A
:102DF00090D158F080E891E009F49EEF91D128F04D
:102E000040E851E059F45EEF09C05BC1FCC1E92F15
:102E1000E078D7D168F3092E052AC1F326173707C2
:102E20004807590738F00E2E07F8E02569F0E0252D
:102E3000E0640AC0EF6307F8009407FADB01B90108
:102E40009D01DC01CA01AD01EF934AD098D10AD0AF
:102E50005F91552331F02BED3FE049E450FD49EC03
:102E600063CF0895DF93DD27B92FBF7740E85FE395
:102E70001616170648075B0710F4D92FCFD19F937A
:102E80008F937F936F93C8D2E4E9F0E01DD177D19F
:102E90002F913F914F915F91D4D1DD2349F090580C
:102EA000A2EA2AED3FE049EC5FE3D0785D274DDFF1
:102EB000DF9165C1DCD008F481E0089539D1E39554
:102EC0006FC10CD05CC12CD140F023D130F021F483
:102ED0005F3F19F0F0C0511197C1F3C072D198F360
:102EE0009923C9F35523B1F3951B550BBB27AA278B
:102EF00062177307840738F09F5F5F4F220F331FFD
:102F0000441FAA1FA9F333D00E2E3AF0E0E830D0C8
:102F100091505040E695001CCAF729D0FE2F27D0CB
:102F2000660F771F881FBB1F261737074807AB0799
:102F3000B0E809F0BB0B802DBF01FF2793585F4F0E
:102F40002AF09E3F510568F0B6C05EC15F3FECF3CA
:102F5000983EDCF3869577956795B795F7959F5FD3
:102F6000C9F7880F911D9695879597F90895E1E027
:102F7000660F771F881FBB1F621773078407BA0786
:102F800020F0621B730B840BBA0BEE1F88F7E095E1
:102F9000089504D06894B11137C108951AD188F00A
:102FA0009F5790F0B92F9927B751A0F0D1F0660F35
:102FB000771F881F991F1AF0BA95C9F712C0B13050
:102FC00081F021D1B1E008951EC1672F782F8827A5
:102FD000B85F39F0B93FCCF3869577956795B3958F
:102FE000D9F73EF490958095709561957F4F8F4FFE
:102FF0009F4F0895E89409C097FB3EF49095809503
:10300000709561957F4F8F4F9F4F9923A9F0F92FAE
:1030100096E9BB279395F695879577956795B7952C
:10302000F111F8CFFAF4BB0F11F460FF1BC06F5F12
:103030007F4F8F4F9F4F16C0882311F096E911C024
:10304000772321F09EE8872F762F05C0662371F045
:1030500096E8862F70E060E02AF09A95660F771F59
:10306000881FDAF7880F9695879597F90895990F35
:103070000008550FAA0BE0E8FEEF16161706E80742
:10308000F907C0F012161306E407F50798F0621B63
:10309000730B840B950B39F40A2661F0232B242B38
:1030A000252B21F408950A2609F4A140A6958FEF57
:1030B000811D811D089597F99F6780E870E060E0A9
:1030C00008959FEF80EC0895DF93CF931F930F93A4
:1030D000FF92EF92DF927B018C01689405C0DA2E9B
:1030E000EF01AFD0FE01E894A5912591359145916E
:1030F0005591AEF3EF0129DEFE019701A801DA94A4
:1031000079F7DF90EF90FF900F911F91CF91DF91B2
:10311000089500240A94161617061806090608953D
:1031200000240A9412161306140605060895C9CF42
:1031300050D0E8F3E894E0E0BB279F57F0F02AED89
:103140003FE049EC06C0EE0FBB0F661F771F881FDC
:1031500028F0B23A62077307840728F0B25A620B6C
:10316000730B840BE3959A9572F7803830F49A9537
:10317000BB0F661F771F881FD2F7904883C1092EA7
:103180000394000C11F4882352F0BB0F40F4BF2BC2
:1031900011F460FF04C06F5F7F4F8F4F9F4F089502
:1031A000EF93E0FF06C0A2EA2AED3FE049EC5FEBB7
:1031B000CCDDE5DF0F90039401FC9058E1ECF0E0EA
:1031C00074C157FD9058440F551F59F05F3F71F07F
:1031D0004795880F97FB991F61F09F3F79F087957E
:1031E0000895121613061406551FF2CF4695F1DF07
:1031F00008C0161617061806991FF1CF8695710597
:10320000610508940895E894BB2766277727CB01CA
:1032100097F908952CDF08F48FEF08959B01AC0116
:1032200060E070E080E89FE34CCE0BD0A8CF71DF68
:1032300028F076DF18F0952309F03DCF42CF112416
:10324000E3CFBFDFA0F3959FD1F3950F50E0551F5B
:10325000629FF001729FBB27F00DB11D639FAA27EB
:10326000F00DB11DAA1F649F6627B00DA11D661F3A
:10327000829F2227B00DA11D621F739FB00DA11D5B
:10328000621F839FA00D611D221F749F3327A00D15
:10329000611D231F849F600D211D822F762F6A2FB1
:1032A00011249F5750408AF0E1F088234AF0EE0F36
:1032B000FF1FBB1F661F771F881F91505040A9F743
:1032C0009E3F510570F0F7CE9FCF5F3FECF3983EE5
:1032D000DCF3869577956795B795F795E7959F5FAA
:1032E000C1F7FE2B880F911D9695879597F9089544
:1032F000FA01EE0FFF1F30962105310599F1611596
:10330000710561F48038BFE39B0749F168949038F8
:10331000810561F08038BFEF9B0741F0992342F5AA
:10332000FF3FE1053105210511F1E8940894E79587
:10333000D901AA2329F4AB2FBE2FF85FD0F310C018
:10334000FF5F70F4A695E0F7F73950F019F0FF3AF7
:1033500038F49F779F930CD00F9007FC90580895F6
:103360003EF0AFCE60E070E080E89FE308954FE765
:103370009F775F934F933F932F93E3D02F913F918C
:103380004F915F9152DF50C09F93D2DE0F9007FCA8
:10339000EE5F06CF11F40EF494CE72C01ADFD0F3B4
:1033A0009923D9F3CEF39F57550B87FF77D000248D
:1033B000A0E640EA900180585695979528F4805CE5
:1033C000660F771F881F20F026173707480730F44D
:1033D000621B730B840B202931294A2BA695179465
:1033E0000794202531254A2758F7660F771F881F35
:1033F00020F026173707480730F4620B730B840B55
:10340000200D311D411DA09581F7B901842F9158E0
:10341000880F9695879508959B01AC0106CF19F406
:103420000EF049CEF0CE4DCED4DEC8F39638C0F7BC
:1034300007F80F92E8942BE33AEA48EB5FE703DFE3
:103440000F920F920F924DB75EB70F92BAD0EFED79
:10345000F0E03ADE4F915F91EF91FF91E595EE1F1D
:10346000FF1F49F0FE57E0684427EE0F441FFA950E
:10347000E1F74195550B2CD00F9007FECFCE089564
:103480009F3F31F0915020F4879577956795B795D8
:10349000880F911D9695879597F908959150504002
:1034A000660F771F881FD2F708959F938F937F939E
:1034B0006F93FF93EF939B01AC01B7DEEF91FF9108
:1034C00003DE2F913F914F915F91AFCEF4CDD8CFD6
:1034D00080DEE8F39923D9F3940F511DBBF391508B
:1034E000504094F059F0882332F0660F771F881F00
:1034F00091505040C1F79E3F510544F7880F911DF0
:103500009695879597F908955F3FACF0983E9CF0AB
:10351000BB27869577956795B79508F4B160939525
:10352000C1F7BB0F58F711F460FFE8CF6F5F7F4F13
:103530008F4F9F4FE3CF68CE0EF0A2CFC2CD6894DD
:10354000BACD47DEC8F39923D1F3C6F3DF93CF9307
:103550001F930F93FF92C92FDD2788232AF021970D
:10356000660F771F881FDAF720E030E040E85FEB56
:103570009FE3883920F0803E30F021968F77D4DBAE
:10358000E7E0F1E003C0D0DBE4E3F1E09DDD8B0197
:10359000BE01EC01FB2E6F5771097595771F880BE3
:1035A000990B2ADD28E132E741E35FE34ADEAF2DE4
:1035B0009801AE01FF900F911F91CF91DF91C5DB74
:1035C000DECDFA01DC01AA0FBB1F9B01AC01BF5786
:1035D00028F422273327442750781FC0B75188F496
:1035E000AB2F0024469537952795011CA395D2F360
:1035F000002069F0220F331F441FB395DAF30DD07A
:1036000092CB61307105A0E88A07B94630F49B017E
:10361000AC016627772788279078309621F02083A1
:103620003183428353830895EF920F931F93CF9377
:10363000322FC02F47FF02C0A4E101C0A4E0E42F55
:10364000FF27E7FDF095F7FF03C0F095E195FF4FE9
:103650004C2F512F2E2F032FEA2E0E945A1B8C2FF6
:10366000912FCF911F910F91EF900895F8940C94A2
:10367000E21DFB019F01E8944230C4F04532B4F4EE
:103680004A3029F497FB1EF4909581959F4F642F43
:1036900077270E94BB1D805D8A330CF0895D819382
:1036A000CB010097A1F716F45DE251931082C90196
:1036B0000C94AB1D6F927F928F929F92AF92BF92AC
:1036C000CF92DF92EF92FF920F931F93CF93DF93EE
:1036D000CDB7DEB729970FB6F894DEBF0FBECDBFCA
:1036E0006A01122FF02E2BE3201718F0B02EB3949E
:1036F00002C03CE3B32EAE014F5F5F4F27E00B2DBE
:103700000E94D31CBC01A981B0E0CD0189709070EA
:103710008130910531F0E1FC06C0E0FE06C040E2D8
:1037200005C04DE203C04BE201C040E0A3FF36C03C
:10373000442311F084E001C083E0811710F4181BCA
:1037400001C010E0E4FC0BC0912FF60180E202C042
:10375000819391509923E1F7C10ED11C10E04423CD
:1037600019F0F60141936F01E2FE05C08EE4F60107
:10377000808391E404C08EE6F601808391E6918314
:10378000828383E090E0C80ED91E812FF60190E27B
:1037900002C0919381508823E1F73AC0A2FF3FC055
:1037A000442311F084E001C083E0811710F4181B5A
:1037B00001C010E0E4FC0BC0912FF60180E202C0D2
:1037C000819391509923E1F7C10ED11C10E044235D
:1037D00019F0F60141936F01E2FE07C089E4F6019A
:1037E00080838EE4818386E406C089E6F6018083C7
:1037F0008EE6818386E6828383E090E0C80ED91E40
:10380000812FF60190E202C0919381508823E1F765
:10381000C10ED11CF60110828EEF9FEFAFC021E0E8
:1038200030E0442311F420E030E0161617061CF4B3
:10383000CB01019602C081E090E0280F391FFF20E4
:1038400021F08F2D90E0019602C080E090E0820F81
:10385000931F212F30E0821793071CF4512F581B20
:1038600001C050E08E2D90E09C0120713070E4FC8E
:103870000DC0E3FC0BC0852FF60190E202C09193CE
:1038800081508823E1F7C50ED11C50E0442319F084
:10389000F60141936F012115310559F4852FF60189
:1038A00090E302C0919381508823E1F7C50ED11CAB
:1038B00050E0B60E4A8120E1622E712C6A227B22F2
:1038C000A4FF03C0413309F4BA941B142CF48B2DCC
:1038D000893018F088E001C081E09B0177FF02C0C9
:1038E00020E030E0A0E0B0E09EE2E92E4B01881A33
:1038F0009108CB01821B930B8E010F5F1F4F080FA6
:10390000191F8F2D90E0AA24BB24A81AB90AFFEF33
:103910002F3F3F0719F4F601E1926F016217730719
:1039200044F0821693062CF4F801EA0FFB1F818104
:1039300001C080E32150304011962A153B0524F048
:10394000F60181936F01E3CF2617370741F4463321
:1039500028F4453321F46114710409F481E3F6017C
:103960008193852FDF0190E202C09D9381508823CF
:10397000E1F7E50FF11D108280E090E029960FB687
:10398000F894DEBF0FBECDBFDF91CF911F910F9195
:10399000FF90EF90DF90CF90BF90AF909F908F906F
:1039A0007F906F900895283008F027E03327DA01E0
:1039B000990F311D87FD916000966105710539F4FD
:1039C00032602E5F3D9330E32A95E1F708959F3FE3
:1039D00030F080387105610509F03C5F3C5F3D9334
:1039E000913008F08068911DDF93CF931F930F9360
:1039F000FF92EF92192F987F9695E92F96959695BD
:103A0000E90FFF27ED52FE4F99273327EE24FF24BD
:103A1000A701E70105900894079428F4360FE71EE4
:103A2000F81E491F511D660F771F881F991F0694A6
:103A3000A1F70590079428F4E70EF81E491F561FBA
:103A4000C11D770F881F991F661F0694A1F7059067
:103A5000079428F4F80E491F561FC71FD11D880F61
:103A6000991F661F771F0694A1F70590079420F40D
:103A7000490F561FC71FD81F990F661F771F881F32
:103A80000694A9F784911095177041F0D695C795C3
:103A900057954795F794E7941A95C1F7E9E7F1E050
:103AA00068941590159135916591959105907FE2F7
:103AB0007395E118F10A430B560BC90BD009C0F7F7
:103AC000E10CF11E431F561FC91FD01D7EF4703339
:103AD00011F48A95E6CFE894015030F0080F0AF40B
:103AE0000027021708F4202F2395022F7A3328F09D
:103AF00079E37D932A95E9F710C07D932A9589F69D
:103B0000069497956795379517951794E118F10ADC
:103B1000430B560BC90BD00998F023957E917395F2
:103B20007A3308F070E37C932013B8F77E917061CC
:103B30007D9330F0839571E37D9370E32A95E1F7EF
:103B40001124EF90FF900F911F91CF91DF91992752
:103B500087FD90950895DC01FC01672F7191772313
:103B6000E1F7329704C07C916D9370836291AE1738
:103B7000BF07C8F30895AA1BBB1B51E107C0AA1FCA
:103B8000BB1FA617B70710F0A61BB70B881F991FFE
:103B90005A95A9F780959095BC01CD01089597FBA2
:103BA000092E07260AD077FD04D0E5DF06D00020D5
:103BB0001AF4709561957F4F0895F6F79095819569
:083BC0009F4F0895F894FFCF18
:103BC800504944206572726F72207465726D3A2094
:103BD8000050494420696E74656772616C20746591
:103BE800726D3A200050726F6772616D2073746154
:103BF8007274210A000A005049442076616C756588
:0A3C08003A20000A0025200A0000FF
:00000001FF
